{
  "contractName": "MyVerifier",
  "abi": [
    {
      "constant": false,
      "inputs": [
        {
          "name": "a",
          "type": "uint256[2]"
        },
        {
          "name": "b",
          "type": "uint256[2][2]"
        },
        {
          "name": "c",
          "type": "uint256[2]"
        },
        {
          "name": "input",
          "type": "uint256[3]"
        }
      ],
      "name": "verifyTx",
      "outputs": [
        {
          "name": "r",
          "type": "bool"
        }
      ],
      "payable": false,
      "stateMutability": "nonpayable",
      "type": "function"
    },
    {
      "anonymous": false,
      "inputs": [
        {
          "indexed": false,
          "name": "s",
          "type": "string"
        }
      ],
      "name": "Verified",
      "type": "event"
    }
  ],
  "bytecode": "0x608060405234801561001057600080fd5b50611166806100206000396000f3fe608060405234801561001057600080fd5b506004361061002b5760003560e01c8063415df87c14610030575b600080fd5b61018f600480360361016081101561004757600080fd5b8101908080604001906002806020026040519081016040528092919082600260200280828437600081840152601f19601f82011690508083019250505050505091929192908060800190600280602002604051908101604052809291906000905b828210156100fc578382604002016002806020026040519081016040528092919082600260200280828437600081840152601f19601f820116905080830192505050505050815260200190600101906100a8565b50505050919291929080604001906002806020026040519081016040528092919082600260200280828437600081840152601f19601f820116905080830192505050505050919291929080606001906003806020026040519081016040528092919082600360200280828437600081840152601f19601f82011690508083019250505050505091929192905050506101a9565b604051808215151515815260200191505060405180910390f35b60006101b3610fba565b6040518060400160405280876000600281106101cb57fe5b60200201518152602001876001600281106101e257fe5b60200201518152508160000181905250604051806040016040528060405180604001604052808860006002811061021557fe5b602002015160006002811061022657fe5b602002015181526020018860006002811061023d57fe5b602002015160016002811061024e57fe5b6020020151815250815260200160405180604001604052808860016002811061027357fe5b602002015160006002811061028457fe5b602002015181526020018860016002811061029b57fe5b60200201516001600281106102ac57fe5b602002015181525081525081602001819052506040518060400160405280856000600281106102d757fe5b60200201518152602001856001600281106102ee57fe5b60200201518152508160400181905250606060036040519080825280602002602001820160405280156103305781602001602082028038833980820191505090505b50905060008090505b60038110156103785784816003811061034e57fe5b602002015182828151811061035f57fe5b6020026020010181815250508080600101915050610339565b50600061038582846103f0565b14156103e1577f3f3cfdb26fb5f9f1786ab4f1a1f9cd4c0b5e726cbdfc26e495261731aad44e396040518080602001828103825260228152602001806111196022913960400191505060405180910390a16001925050506103e8565b6000925050505b949350505050565b6000807f30644e72e131a029b85045b68181585d2833e84879b9709143e1f593f0000001905061041e610fee565b610426610562565b905080608001515160018651011461043d57600080fd5b610445611036565b6040518060400160405280600081526020016000815250905060008090505b86518110156104db578387828151811061047a57fe5b60200260200101511061048c57600080fd5b6104cc826104c7856080015160018501815181106104a657fe5b60200260200101518a85815181106104ba57fe5b6020026020010151610a20565b610ab4565b91508080600101915050610464565b506104fe8183608001516000815181106104f157fe5b6020026020010151610ab4565b90506105448560000151866020015161051684610b67565b85604001516105288a60400151610b67565b876060015161053a8960000151610b67565b8960200151610c01565b610554576001935050505061055c565b600093505050505b92915050565b61056a610fee565b60405180604001604052807f1564ee686e5e0b1f4ff6655310dce8b810ff21be64813fc7c7b96f3e6249224581526020017f2639b355c66a0c78b5cecbe4fe5c9ff9aacf33b5249d09f7fed51e2f153e67878152508160000181905250604051806040016040528060405180604001604052807f0d3a4f33ce9b6f19528e79e219acfb06289733c70471715978033db0c461d09881526020017f24868913563fd43fb429dc397e1c87e0e273a3f6fa651a507bcaf402104edcf5815250815260200160405180604001604052807f1710593996e0d419eb4cfca8e75ac76b11d573c2d2fa5b5297edfe1c59b7ff7281526020017f18f10e225663f07f1100973328f0b926e7c047c11ba5e08e84a4f68a2ef69b368152508152508160200181905250604051806040016040528060405180604001604052807f109bd644054e249d54f1caf1dda7a4d3d057340e3c1d5b70cefbcef2244c9a3581526020017f14e8c4a19eb39c7236859ef71ced689beb868c9ac8cfd3f2706e77fc993a10ca815250815260200160405180604001604052807f1b9700e532e540829dbd335932c08e7cee742decffa5125ea0a8dfbdcab2513281526020017f01a6cbeeac7f2e4fdcd94be585ae55e631a8dfc573c83ed0a28a52f7f2bdb0588152508152508160400181905250604051806040016040528060405180604001604052807f232bc0767cd8969eae5471344da6beb9b0f3181f9946e2fd715f4f85153dd18681526020017f0fed16db39f8a546633a157d80d1e77475c4848dd2c5005277323fc0f3e9b896815250815260200160405180604001604052807f28e57e873cc80ec96e2fbd6a2930dfb41960dd924dada432f77eac0379397d5281526020017f2df38b7db2c9f53210ae6d61a8d38644d1d274e83610d502fb007fc9906354148152508152508160600181905250600460405190808252806020026020018201604052801561085157816020015b61083e611050565b8152602001906001900390816108365790505b50816080018190525060405180604001604052807f228b0911388f1a3b40def5fb27db1ed74391d3a9f3f0d18f7b1e4f5f7acb6c6b81526020017f1d80303eebf099c5c11f8fbce9a438f9f508544e31e1374f992df2fa221c0c7181525081608001516000815181106108c057fe5b602002602001018190525060405180604001604052807f21b632672611f520a0d1e756508f18551290317707294f46f4173840152a253581526020017f02fa47a355b9a45cf923b97ba0be3a9b7d89c347869d49b7b8a7bb7984506dab815250816080015160018151811061093157fe5b602002602001018190525060405180604001604052807e6d17f68b9d58c0ee1f14213f5ea5935d11f265930b3396d80243e63e8c205981526020017f0e4b16ef08f79b99e96949f140e31f81dfa071e3883c1366c610c549c453d4ee81525081608001516002815181106109a157fe5b602002602001018190525060405180604001604052807f27c317c123925ebd873326f9b98a85ce7fa5ac860eaee27b19337c950a33a1c781526020017f16d9bc0c83c93185278f3ddf55dab1e7eca5f1d1883411093c6523c0e70054ff8152508160800151600381518110610a1257fe5b602002602001018190525090565b610a28611036565b610a3061106a565b836000015181600060038110610a4257fe5b602002018181525050836020015181600160038110610a5d57fe5b6020020181815250508281600260038110610a7457fe5b6020020181815250506000606083608084600060076107d05a03f190508060008114610a9f57610aa1565bfe5b5080610aac57600080fd5b505092915050565b610abc611036565b610ac461108c565b836000015181600060048110610ad657fe5b602002018181525050836020015181600160048110610af157fe5b602002018181525050826000015181600260048110610b0c57fe5b602002018181525050826020015181600360048110610b2757fe5b602002018181525050600060608360c084600060066107d05a03f190508060008114610b5257610b54565bfe5b5080610b5f57600080fd5b505092915050565b610b6f611036565b60007f30644e72e131a029b85045b68181585d97816a916871ca8d3c208c16d87cfd47905060008360000151148015610bac575060008360200151145b15610bd0576040518060400160405280600081526020016000815250915050610bfc565b60405180604001604052808460000151815260200182856020015181610bf257fe5b0683038152509150505b919050565b600060606004604051908082528060200260200182016040528015610c4057816020015b610c2d611050565b815260200190600190039081610c255790505b50905060606004604051908082528060200260200182016040528015610c8057816020015b610c6d6110ae565b815260200190600190039081610c655790505b5090508a82600081518110610c9157fe5b60200260200101819052508882600181518110610caa57fe5b60200260200101819052508682600281518110610cc357fe5b60200260200101819052508482600381518110610cdc57fe5b60200260200101819052508981600081518110610cf557fe5b60200260200101819052508781600181518110610d0e57fe5b60200260200101819052508581600281518110610d2757fe5b60200260200101819052508381600381518110610d4057fe5b6020026020010181905250610d558282610d65565b9250505098975050505050505050565b60008151835114610d7557600080fd5b6000835190506000600682029050606081604051908082528060200260200182016040528015610db45781602001602082028038833980820191505090505b50905060008090505b83811015610f5a57868181518110610dd157fe5b602002602001015160000151826000600684020181518110610def57fe5b602002602001018181525050868181518110610e0757fe5b602002602001015160200151826001600684020181518110610e2557fe5b602002602001018181525050858181518110610e3d57fe5b602002602001015160000151600060028110610e5557fe5b6020020151826002600684020181518110610e6c57fe5b602002602001018181525050858181518110610e8457fe5b602002602001015160000151600160028110610e9c57fe5b6020020151826003600684020181518110610eb357fe5b602002602001018181525050858181518110610ecb57fe5b602002602001015160200151600060028110610ee357fe5b6020020151826004600684020181518110610efa57fe5b602002602001018181525050858181518110610f1257fe5b602002602001015160200151600160028110610f2a57fe5b6020020151826005600684020181518110610f4157fe5b6020026020010181815250508080600101915050610dbd565b50610f636110d4565b60006020826020860260208601600060086107d05a03f190508060008114610f8a57610f8c565bfe5b5080610f9757600080fd5b600082600060018110610fa657fe5b602002015114159550505050505092915050565b604051806101000160405280610fce611050565b8152602001610fdb6110ae565b8152602001610fe8611050565b81525090565b604051806101e00160405280611002611050565b815260200161100f6110ae565b815260200161101c6110ae565b81526020016110296110ae565b8152602001606081525090565b604051806040016040528060008152602001600081525090565b604051806040016040528060008152602001600081525090565b6040518060600160405280600390602082028038833980820191505090505090565b6040518060800160405280600490602082028038833980820191505090505090565b60405180608001604052806110c16110f6565b81526020016110ce6110f6565b81525090565b6040518060200160405280600190602082028038833980820191505090505090565b604051806040016040528060029060208202803883398082019150509050509056fe5472616e73616374696f6e207375636365737366756c6c792076657269666965642ea165627a7a72305820baed3ffaed81d689e39727ba22c333d8a31024df677eaed149d1fdc5e12744790029",
  "source": "pragma solidity >=0.4.21 <0.6.0;\n//pragma solidity ^0.5.0;\n\nimport \"../../zokrates/code/square/verifier.sol\";\nimport \"./ERC721Mintable.sol\";\n\n// TODO define a contract call to the zokrates generated solidity contract <Verifier> or <renamedVerifier>\ncontract MyVerifier is Verifier {}\n\n\n// TODO define another contract named SolnSquareVerifier that inherits from your ERC721Mintable class\ncontract SolnSquareVerifier is CustomERC721Token {\n\n\tMyVerifier private verifier;\n\n\tconstructor(address verifierAddress, string memory name, string memory symbol)\n\t\tCustomERC721Token(name, symbol)\n\t\tpublic\n    {\n        verifier = MyVerifier(verifierAddress);\n    }\n// TODO define a solutions struct that can hold an index & an address\n    struct Solution {\n        uint256 index;\n        address account;\n    }\n\n// TODO define an array of the above struct\n    Solution[] private solutions;\n\n// TODO define a mapping to store unique solutions submitted\n    mapping(bytes32 => Solution) public mapSolution;\n\n// TODO Create an event to emit when a solution is added\n    event evSolutionAdded(uint256 _index, address account);\n\n// TODO Create a function to add the solutions to the array and emit the event\n\tfunction addSolution(bytes32 _key, uint256 _index, address _account)\n        public\n    {\n\t    Solution memory solution = Solution({index: _index, account: _account});\n\t    solutions.push(solution);\n\t    mapSolution[_key] = solution;\n\t    emit evSolutionAdded(_index, _account);\n\t}\n\n// TODO Create a function to mint new NFT only after the solution has been verified\n//  - make sure the solution is unique (has not been used before)\n//  - make sure you handle metadata as well as tokenSuplly\n\tfunction mintToken(\n\t\t\tuint256 _index,\n\t\t\taddress _account,\n\t\t\tuint[2] memory a,\n\t\t\tuint[2][2] memory b,\n\t\t\tuint[2] memory c,\n\t\t\tuint[3] memory input)\n\t\tpublic\n\t{\n        require(verifier.verifyTx(a, b, c, input) == true, \"Proof invlaid\");\n\t\tbytes32 key = keccak256(abi.encodePacked(a, b, c, input));\n\t\trequire(mapSolution[key].account == address(0), \"Solution has already been used.\");\n        addSolution(key, _index, _account);\n        mint(_account, _index);\n\t}\n}",
  "sourcePath": "/home/hajime/git/BlockchainDevND/lessons/Zokrates/eth-contracts/contracts/SolnSquareVerifier.sol",
  "compiler": {
    "name": "solc",
    "version": "0.5.8+commit.23d335f2.Emscripten.clang"
  },
  "schemaVersion": "3.0.16",
  "updatedAt": "2019-11-08T18:49:44.187Z",
  "devdoc": {
    "methods": {}
  },
  "userdoc": {
    "methods": {}
  }
}